{
  "_format": "hh-sol-artifact-1",
  "contractName": "TournamentStorage",
  "sourceName": "contracts/TournamentStorage.sol",
  "abi": [
    {
      "inputs": [],
      "stateMutability": "nonpayable",
      "type": "constructor"
    },
    {
      "anonymous": false,
      "inputs": [
        {
          "indexed": true,
          "internalType": "uint256",
          "name": "gameId",
          "type": "uint256"
        },
        {
          "indexed": false,
          "internalType": "uint256",
          "name": "winnerId",
          "type": "uint256"
        }
      ],
      "name": "ScoreSaved",
      "type": "event"
    },
    {
      "inputs": [],
      "name": "getMatchCount",
      "outputs": [
        {
          "internalType": "uint256",
          "name": "",
          "type": "uint256"
        }
      ],
      "stateMutability": "view",
      "type": "function"
    },
    {
      "inputs": [
        {
          "internalType": "uint256",
          "name": "",
          "type": "uint256"
        }
      ],
      "name": "matches",
      "outputs": [
        {
          "internalType": "uint256",
          "name": "gameId",
          "type": "uint256"
        },
        {
          "internalType": "uint256",
          "name": "player1Id",
          "type": "uint256"
        },
        {
          "internalType": "uint256",
          "name": "player2Id",
          "type": "uint256"
        },
        {
          "internalType": "uint256",
          "name": "score1",
          "type": "uint256"
        },
        {
          "internalType": "uint256",
          "name": "score2",
          "type": "uint256"
        },
        {
          "internalType": "uint256",
          "name": "timestamp",
          "type": "uint256"
        }
      ],
      "stateMutability": "view",
      "type": "function"
    },
    {
      "inputs": [],
      "name": "owner",
      "outputs": [
        {
          "internalType": "address",
          "name": "",
          "type": "address"
        }
      ],
      "stateMutability": "view",
      "type": "function"
    },
    {
      "inputs": [
        {
          "internalType": "uint256",
          "name": "_gameId",
          "type": "uint256"
        },
        {
          "internalType": "uint256",
          "name": "_p1Id",
          "type": "uint256"
        },
        {
          "internalType": "uint256",
          "name": "_p2Id",
          "type": "uint256"
        },
        {
          "internalType": "uint256",
          "name": "_s1",
          "type": "uint256"
        },
        {
          "internalType": "uint256",
          "name": "_s2",
          "type": "uint256"
        }
      ],
      "name": "saveScore",
      "outputs": [],
      "stateMutability": "nonpayable",
      "type": "function"
    }
  ],
  "bytecode": "0x608060405234801561001057600080fd5b5033600160006101000a81548173ffffffffffffffffffffffffffffffffffffffff021916908373ffffffffffffffffffffffffffffffffffffffff160217905550610552806100616000396000f3fe608060405234801561001057600080fd5b506004361061004c5760003560e01c80630aa867bb146100515780634768d4ef1461006d5780638c4f7dae146100a25780638da5cb5b146100c0575b600080fd5b61006b60048036038101906100669190610310565b6100de565b005b6100876004803603810190610082919061038b565b610257565b604051610099969594939291906103c7565b60405180910390f35b6100aa6102a3565b6040516100b79190610428565b60405180910390f35b6100c86102af565b6040516100d59190610484565b60405180910390f35b600160009054906101000a900473ffffffffffffffffffffffffffffffffffffffff1673ffffffffffffffffffffffffffffffffffffffff163373ffffffffffffffffffffffffffffffffffffffff161461016e576040517f08c379a0000000000000000000000000000000000000000000000000000000008152600401610165906104fc565b60405180910390fd5b60006040518060c00160405280878152602001868152602001858152602001848152602001838152602001428152509080600181540180825580915050600190039060005260206000209060060201600090919091909150600082015181600001556020820151816001015560408201518160020155606082015181600301556080820151816004015560a08201518160050155505060008183116102135783610215565b845b9050857fc6cadbdc0a8d32c83639865dbb3dc2d8e6e5ae8aaff371d2fe0b1f8413d67721826040516102479190610428565b60405180910390a2505050505050565b6000818154811061026757600080fd5b90600052602060002090600602016000915090508060000154908060010154908060020154908060030154908060040154908060050154905086565b60008080549050905090565b600160009054906101000a900473ffffffffffffffffffffffffffffffffffffffff1681565b600080fd5b6000819050919050565b6102ed816102da565b81146102f857600080fd5b50565b60008135905061030a816102e4565b92915050565b600080600080600060a0868803121561032c5761032b6102d5565b5b600061033a888289016102fb565b955050602061034b888289016102fb565b945050604061035c888289016102fb565b935050606061036d888289016102fb565b925050608061037e888289016102fb565b9150509295509295909350565b6000602082840312156103a1576103a06102d5565b5b60006103af848285016102fb565b91505092915050565b6103c1816102da565b82525050565b600060c0820190506103dc60008301896103b8565b6103e960208301886103b8565b6103f660408301876103b8565b61040360608301866103b8565b61041060808301856103b8565b61041d60a08301846103b8565b979650505050505050565b600060208201905061043d60008301846103b8565b92915050565b600073ffffffffffffffffffffffffffffffffffffffff82169050919050565b600061046e82610443565b9050919050565b61047e81610463565b82525050565b60006020820190506104996000830184610475565b92915050565b600082825260208201905092915050565b7f4f6e6c79206f776e65722063616e20736176652073636f726573000000000000600082015250565b60006104e6601a8361049f565b91506104f1826104b0565b602082019050919050565b60006020820190508181036000830152610515816104d9565b905091905056fea264697066735822122056acc188bf0fb8a3265e833620b6e8966569441d48fb43983b2e9f2082c5063564736f6c63430008180033",
  "linkReferences": {},
  "deployedLinkReferences": {}
}